{
  "_format": "hh-sol-artifact-1",
  "contractName": "Staking",
  "sourceName": "contracts/Staking.sol",
  "abi": [
    {
      "inputs": [
        {
          "internalType": "address",
          "name": "_token",
          "type": "address"
        }
      ],
      "stateMutability": "nonpayable",
      "type": "constructor"
    },
    {
      "inputs": [
        {
          "internalType": "address",
          "name": "user",
          "type": "address"
        }
      ],
      "name": "calculateReward",
      "outputs": [
        {
          "internalType": "uint256",
          "name": "",
          "type": "uint256"
        }
      ],
      "stateMutability": "view",
      "type": "function"
    },
    {
      "inputs": [],
      "name": "rewardRate",
      "outputs": [
        {
          "internalType": "uint256",
          "name": "",
          "type": "uint256"
        }
      ],
      "stateMutability": "view",
      "type": "function"
    },
    {
      "inputs": [
        {
          "internalType": "uint256",
          "name": "_amount",
          "type": "uint256"
        }
      ],
      "name": "stake",
      "outputs": [],
      "stateMutability": "nonpayable",
      "type": "function"
    },
    {
      "inputs": [
        {
          "internalType": "address",
          "name": "",
          "type": "address"
        }
      ],
      "name": "stakes",
      "outputs": [
        {
          "internalType": "uint256",
          "name": "amount",
          "type": "uint256"
        },
        {
          "internalType": "uint256",
          "name": "time",
          "type": "uint256"
        }
      ],
      "stateMutability": "view",
      "type": "function"
    },
    {
      "inputs": [],
      "name": "token",
      "outputs": [
        {
          "internalType": "contract ArunToken",
          "name": "",
          "type": "address"
        }
      ],
      "stateMutability": "view",
      "type": "function"
    },
    {
      "inputs": [],
      "name": "withdraw",
      "outputs": [],
      "stateMutability": "nonpayable",
      "type": "function"
    }
  ],
  "bytecode": "0x6080604052600a60025534801561001557600080fd5b50604051610ab5380380610ab5833981810160405281019061003791906100e0565b806000806101000a81548173ffffffffffffffffffffffffffffffffffffffff021916908373ffffffffffffffffffffffffffffffffffffffff1602179055505061010d565b600080fd5b600073ffffffffffffffffffffffffffffffffffffffff82169050919050565b60006100ad82610082565b9050919050565b6100bd816100a2565b81146100c857600080fd5b50565b6000815190506100da816100b4565b92915050565b6000602082840312156100f6576100f561007d565b5b6000610104848285016100cb565b91505092915050565b6109998061011c6000396000f3fe608060405234801561001057600080fd5b50600436106100625760003560e01c806316934fc4146100675780633ccfd60b146100985780637b0a47ee146100a2578063a694fc3a146100c0578063d82e3962146100dc578063fc0c546a1461010c575b600080fd5b610081600480360381019061007c919061057c565b61012a565b60405161008f9291906105c2565b60405180910390f35b6100a061014e565b005b6100aa6102bd565b6040516100b791906105eb565b60405180910390f35b6100da60048036038101906100d59190610632565b6102c3565b005b6100f660048036038101906100f1919061057c565b61044a565b60405161010391906105eb565b60405180910390f35b6101146104f5565b60405161012191906106be565b60405180910390f35b60016020528060005260406000206000915090508060000154908060010154905082565b6000600160003373ffffffffffffffffffffffffffffffffffffffff1673ffffffffffffffffffffffffffffffffffffffff16815260200190815260200160002060405180604001604052908160008201548152602001600182015481525050905060006101bb3361044a565b905060008183600001516101cf9190610708565b90506000600160003373ffffffffffffffffffffffffffffffffffffffff1673ffffffffffffffffffffffffffffffffffffffff1681526020019081526020016000206000018190555060008054906101000a900473ffffffffffffffffffffffffffffffffffffffff1673ffffffffffffffffffffffffffffffffffffffff1663a9059cbb33836040518363ffffffff1660e01b815260040161027492919061074b565b6020604051808303816000875af1158015610293573d6000803e3d6000fd5b505050506040513d601f19601f820116820180604052508101906102b791906107ac565b50505050565b60025481565b60008111610306576040517f08c379a00000000000000000000000000000000000000000000000000000000081526004016102fd90610836565b60405180910390fd5b60008054906101000a900473ffffffffffffffffffffffffffffffffffffffff1673ffffffffffffffffffffffffffffffffffffffff166323b872dd3330846040518463ffffffff1660e01b815260040161036393929190610856565b6020604051808303816000875af1158015610382573d6000803e3d6000fd5b505050506040513d601f19601f820116820180604052508101906103a691906107ac565b5080600160003373ffffffffffffffffffffffffffffffffffffffff1673ffffffffffffffffffffffffffffffffffffffff16815260200190815260200160002060000160008282546103f99190610708565b9250508190555042600160003373ffffffffffffffffffffffffffffffffffffffff1673ffffffffffffffffffffffffffffffffffffffff1681526020019081526020016000206001018190555050565b600080600160008473ffffffffffffffffffffffffffffffffffffffff1673ffffffffffffffffffffffffffffffffffffffff16815260200190815260200160002060405180604001604052908160008201548152602001600182015481525050905060008160200151426104bf919061088d565b90506283d6008160025484600001516104d891906108c1565b6104e291906108c1565b6104ec9190610932565b92505050919050565b60008054906101000a900473ffffffffffffffffffffffffffffffffffffffff1681565b600080fd5b600073ffffffffffffffffffffffffffffffffffffffff82169050919050565b60006105498261051e565b9050919050565b6105598161053e565b811461056457600080fd5b50565b60008135905061057681610550565b92915050565b60006020828403121561059257610591610519565b5b60006105a084828501610567565b91505092915050565b6000819050919050565b6105bc816105a9565b82525050565b60006040820190506105d760008301856105b3565b6105e460208301846105b3565b9392505050565b600060208201905061060060008301846105b3565b92915050565b61060f816105a9565b811461061a57600080fd5b50565b60008135905061062c81610606565b92915050565b60006020828403121561064857610647610519565b5b60006106568482850161061d565b91505092915050565b6000819050919050565b600061068461067f61067a8461051e565b61065f565b61051e565b9050919050565b600061069682610669565b9050919050565b60006106a88261068b565b9050919050565b6106b88161069d565b82525050565b60006020820190506106d360008301846106af565b92915050565b7f4e487b7100000000000000000000000000000000000000000000000000000000600052601160045260246000fd5b6000610713826105a9565b915061071e836105a9565b9250828201905080821115610736576107356106d9565b5b92915050565b6107458161053e565b82525050565b6000604082019050610760600083018561073c565b61076d60208301846105b3565b9392505050565b60008115159050919050565b61078981610774565b811461079457600080fd5b50565b6000815190506107a681610780565b92915050565b6000602082840312156107c2576107c1610519565b5b60006107d084828501610797565b91505092915050565b600082825260208201905092915050565b7f496e76616c696420616d6f756e74000000000000000000000000000000000000600082015250565b6000610820600e836107d9565b915061082b826107ea565b602082019050919050565b6000602082019050818103600083015261084f81610813565b9050919050565b600060608201905061086b600083018661073c565b610878602083018561073c565b61088560408301846105b3565b949350505050565b6000610898826105a9565b91506108a3836105a9565b92508282039050818111156108bb576108ba6106d9565b5b92915050565b60006108cc826105a9565b91506108d7836105a9565b92508282026108e5816105a9565b915082820484148315176108fc576108fb6106d9565b5b5092915050565b7f4e487b7100000000000000000000000000000000000000000000000000000000600052601260045260246000fd5b600061093d826105a9565b9150610948836105a9565b92508261095857610957610903565b5b82820490509291505056fea2646970667358221220f55ce6572e410c0987c61b4dad4e09851929e1636a64d204061dd9e62bf8edb264736f6c63430008140033",
  "linkReferences": {},
  "deployedLinkReferences": {}
}